{
  "contractName": "Votee",
  "abi": [
    {
      "inputs": [],
      "payable": false,
      "stateMutability": "nonpayable",
      "type": "constructor"
    },
    {
      "anonymous": false,
      "inputs": [
        {
          "indexed": false,
          "internalType": "uint256",
          "name": "electionID",
          "type": "uint256"
        }
      ],
      "name": "ElectionScheduled",
      "type": "event"
    },
    {
      "anonymous": false,
      "inputs": [
        {
          "indexed": false,
          "internalType": "uint256",
          "name": "electionID",
          "type": "uint256"
        },
        {
          "indexed": false,
          "internalType": "bytes32",
          "name": "anonymizedIdentifier",
          "type": "bytes32"
        }
      ],
      "name": "RegisteredIdentifier",
      "type": "event"
    },
    {
      "anonymous": false,
      "inputs": [
        {
          "indexed": false,
          "internalType": "uint256",
          "name": "electionID",
          "type": "uint256"
        },
        {
          "indexed": false,
          "internalType": "address",
          "name": "option",
          "type": "address"
        }
      ],
      "name": "RegisteredOption",
      "type": "event"
    },
    {
      "anonymous": false,
      "inputs": [
        {
          "indexed": false,
          "internalType": "uint256",
          "name": "electionID",
          "type": "uint256"
        },
        {
          "indexed": true,
          "internalType": "bytes32",
          "name": "anonymizedIdentifier",
          "type": "bytes32"
        }
      ],
      "name": "Voted",
      "type": "event"
    },
    {
      "constant": false,
      "inputs": [
        {
          "internalType": "uint256",
          "name": "_startsAtTimestamp",
          "type": "uint256"
        },
        {
          "internalType": "uint256",
          "name": "_endsWithinSeconds",
          "type": "uint256"
        }
      ],
      "name": "scheduleElections",
      "outputs": [],
      "payable": false,
      "stateMutability": "nonpayable",
      "type": "function"
    },
    {
      "constant": false,
      "inputs": [
        {
          "internalType": "uint256",
          "name": "_electionID",
          "type": "uint256"
        },
        {
          "internalType": "bytes32",
          "name": "_identifierHash",
          "type": "bytes32"
        }
      ],
      "name": "registerIdentifier",
      "outputs": [],
      "payable": false,
      "stateMutability": "nonpayable",
      "type": "function"
    },
    {
      "constant": false,
      "inputs": [
        {
          "internalType": "uint256",
          "name": "_electionID",
          "type": "uint256"
        },
        {
          "internalType": "address",
          "name": "_option",
          "type": "address"
        }
      ],
      "name": "registerOption",
      "outputs": [],
      "payable": false,
      "stateMutability": "nonpayable",
      "type": "function"
    },
    {
      "constant": false,
      "inputs": [
        {
          "internalType": "uint256",
          "name": "_electionID",
          "type": "uint256"
        },
        {
          "internalType": "uint256",
          "name": "_optionID",
          "type": "uint256"
        },
        {
          "internalType": "bytes",
          "name": "_identifier",
          "type": "bytes"
        }
      ],
      "name": "vote",
      "outputs": [],
      "payable": false,
      "stateMutability": "nonpayable",
      "type": "function"
    }
  ],
  "bytecode": "0x608060405234801561001057600080fd5b50336000806101000a81548173ffffffffffffffffffffffffffffffffffffffff021916908373ffffffffffffffffffffffffffffffffffffffff160217905550610ec0806100606000396000f3fe608060405234801561001057600080fd5b5060043610610069576000357c0100000000000000000000000000000000000000000000000000000000900480634dda437a1461006e57806354497689146100bc578063a867b846146100f4578063d4869e64146101c3575b600080fd5b6100ba6004803603604081101561008457600080fd5b8101908080359060200190929190803573ffffffffffffffffffffffffffffffffffffffff1690602001909291905050506101fb565b005b6100f2600480360360408110156100d257600080fd5b81019080803590602001909291908035906020019092919050505061050b565b005b6101c16004803603606081101561010a57600080fd5b8101908080359060200190929190803590602001909291908035906020019064010000000081111561013b57600080fd5b82018360208201111561014d57600080fd5b8035906020019184600183028401116401000000008311171561016f57600080fd5b91908080601f016020809104026020016040519081016040528093929190818152602001838380828437600081840152601f19601f820116905080830192505050505050509192919290505050610656565b005b6101f9600480360360408110156101d957600080fd5b810190808035906020019092919080359060200190929190505050610c07565b005b6000809054906101000a900473ffffffffffffffffffffffffffffffffffffffff1673ffffffffffffffffffffffffffffffffffffffff163373ffffffffffffffffffffffffffffffffffffffff16146102bd576040517f08c379a00000000000000000000000000000000000000000000000000000000081526004018080602001828103825260208152602001807f436f6e7472616374206f776e65722072657374726963746564206d6574686f6481525060200191505060405180910390fd5b818060015411610335576040517f08c379a00000000000000000000000000000000000000000000000000000000081526004018080602001828103825260178152602001807f456c656374696f6e20646f6573206e6f7420657869737400000000000000000081525060200191505060405180910390fd5b826002600082815260200190815260200160002060000154421180156103885750600260008281526020019081526020016000206001015460026000838152602001908152602001600020600001540142105b6103fa576040517f08c379a00000000000000000000000000000000000000000000000000000000081526004018080602001828103825260178152602001807f456c656374696f6e20646f6573206e6f7420657869737400000000000000000081525060200191505060405180910390fd5b600260008581526020019081526020016000206005018390806001815401808255809150509060018203906000526020600020016000909192909190916101000a81548173ffffffffffffffffffffffffffffffffffffffff021916908373ffffffffffffffffffffffffffffffffffffffff160217905550507fbd591e55c760ddea8d4b1126737f92f6642bf7352377c0ae7f4da22868a78cf68484604051808381526020018273ffffffffffffffffffffffffffffffffffffffff1673ffffffffffffffffffffffffffffffffffffffff1681526020019250505060405180910390a1600260008581526020019081526020016000206004016000815480929190600101919050555050505050565b6000809054906101000a900473ffffffffffffffffffffffffffffffffffffffff1673ffffffffffffffffffffffffffffffffffffffff163373ffffffffffffffffffffffffffffffffffffffff16146105cd576040517f08c379a00000000000000000000000000000000000000000000000000000000081526004018080602001828103825260208152602001807f436f6e7472616374206f776e65722072657374726963746564206d6574686f6481525060200191505060405180910390fd5b816002600060015481526020019081526020016000206000018190555080600260006001548152602001908152602001600020600101819055507fa1ac31a149303c319e75df54e91e98a1f8dfe94a41c0e0f60486bb5fb560e7e66001546040518082815260200191505060405180910390a16001600081548092919060010191905055505050565b6000809054906101000a900473ffffffffffffffffffffffffffffffffffffffff1673ffffffffffffffffffffffffffffffffffffffff163373ffffffffffffffffffffffffffffffffffffffff1614610718576040517f08c379a00000000000000000000000000000000000000000000000000000000081526004018080602001828103825260208152602001807f436f6e7472616374206f776e65722072657374726963746564206d6574686f6481525060200191505060405180910390fd5b828060015411610790576040517f08c379a00000000000000000000000000000000000000000000000000000000081526004018080602001828103825260178152602001807f456c656374696f6e20646f6573206e6f7420657869737400000000000000000081525060200191505060405180910390fd5b836002600082815260200190815260200160002060000154421180156107e35750600260008281526020019081526020016000206001015460026000838152602001908152602001600020600001540142105b610855576040517f08c379a00000000000000000000000000000000000000000000000000000000081526004018080602001828103825260178152602001807f456c656374696f6e20646f6573206e6f7420657869737400000000000000000081525060200191505060405180910390fd5b846002600082815260200190815260200160002060030160003373ffffffffffffffffffffffffffffffffffffffff1673ffffffffffffffffffffffffffffffffffffffff16815260200190815260200160002060009054906101000a900460ff161561092a576040517f08c379a00000000000000000000000000000000000000000000000000000000081526004018080602001828103825260118152602001807f596f7520616c726561647920766f74656400000000000000000000000000000081525060200191505060405180910390fd5b8585806002600084815260200190815260200160002060040154116109b7576040517f08c379a000000000000000000000000000000000000000000000000000000000815260040180806020018281038252600e8152602001807f496e76616c6964206f7074696f6e00000000000000000000000000000000000081525060200191505060405180910390fd5b600086805190602001209050600260008a8152602001908152602001600020600201600082815260200190815260200160002060009054906101000a900460ff16610a6a576040517f08c379a00000000000000000000000000000000000000000000000000000000081526004018080602001828103825260128152602001807f496e76616c6964206964656e746966696572000000000000000000000000000081525060200191505060405180910390fd5b6000600260008b8152602001908152602001600020600201600083815260200190815260200160002060006101000a81548160ff0219169083151502179055506001600260008b815260200190815260200160002060030160003373ffffffffffffffffffffffffffffffffffffffff1673ffffffffffffffffffffffffffffffffffffffff16815260200190815260200160002060006101000a81548160ff021916908315150217905550600260008a81526020019081526020016000206006016000600260008c81526020019081526020016000206005018a81548110610b4f57fe5b9060005260206000200160009054906101000a900473ffffffffffffffffffffffffffffffffffffffff1673ffffffffffffffffffffffffffffffffffffffff1673ffffffffffffffffffffffffffffffffffffffff16815260200190815260200160002060008154809291906001019190505550807f930d364ceca5db5248fd2180468563a7d4d70fa6dac758667411b86265f4e7b48a6040518082815260200191505060405180910390a2505050505050505050565b6000809054906101000a900473ffffffffffffffffffffffffffffffffffffffff1673ffffffffffffffffffffffffffffffffffffffff163373ffffffffffffffffffffffffffffffffffffffff1614610cc9576040517f08c379a00000000000000000000000000000000000000000000000000000000081526004018080602001828103825260208152602001807f436f6e7472616374206f776e65722072657374726963746564206d6574686f6481525060200191505060405180910390fd5b818060015411610d41576040517f08c379a00000000000000000000000000000000000000000000000000000000081526004018080602001828103825260178152602001807f456c656374696f6e20646f6573206e6f7420657869737400000000000000000081525060200191505060405180910390fd5b82600260008281526020019081526020016000206000015442118015610d945750600260008281526020019081526020016000206001015460026000838152602001908152602001600020600001540142105b610e06576040517f08c379a00000000000000000000000000000000000000000000000000000000081526004018080602001828103825260178152602001807f456c656374696f6e20646f6573206e6f7420657869737400000000000000000081525060200191505060405180910390fd5b600160026000868152602001908152602001600020600201600085815260200190815260200160002060006101000a81548160ff0219169083151502179055507ff5becd3b8dbb1455b425995b838790614edc968d6059426950177ce8caf413418484604051808381526020018281526020019250505060405180910390a15050505056fea265627a7a723158205224ddaf3b704fba470fd93991a00cb0e17482e74b82f835929f0766adf48e6e64736f6c634300050b0032",
  "source": "pragma solidity 0.5.11;\n\ncontract Votee {\n\n    // Events\n\n    event ElectionScheduled(uint electionID);\n    event RegisteredIdentifier(uint electionID, bytes32 anonymizedIdentifier);\n    event RegisteredOption(uint electionID, address option);\n\n    event Voted(uint electionID, bytes32 indexed anonymizedIdentifier);\n\n    // Structs\n\n    struct Election {\n        uint startsAtTimestamp;\n        uint endsWithinSeconds;\n\n        mapping(bytes32 => bool) allowedAnonymizedIdentifiers;\n        mapping(address => bool) didVote;\n\n        uint optionsCount;\n        address[] options;\n\n        mapping(address => uint) votes;\n    }\n\n    address owner;\n    uint electionsCount;\n    mapping(uint => Election) elections;\n\n    constructor() public {\n        owner = msg.sender;\n    }\n\n    // Modifiers\n\n    modifier isOwner() {\n        require(msg.sender == owner, \"Contract owner restricted method\");\n        _;\n    }\n\n    modifier isElectionSchedule(uint _electionID) {\n        require(electionsCount > _electionID, \"Election does not exist\");\n        _;\n    }\n\n    modifier isElectionAlive(uint _electionID) {\n        require(\n            block.timestamp > elections[_electionID].startsAtTimestamp\n            &&\n            block.timestamp < elections[_electionID].startsAtTimestamp\n            +\n            elections[_electionID].endsWithinSeconds,\n            \"Election does not exist\"\n            );\n        _;\n    }\n\n    modifier doesOptionExist(uint _electionID, uint _optionID) {\n        require(elections[_electionID].optionsCount > _optionID, \"Invalid option\");\n        _;\n    }\n\n    modifier didNotVote(uint _electionID) {\n        require(!elections[_electionID].didVote[msg.sender], \"You already voted\");\n        _;\n    }\n    // Owner restricted methods\n\n    function scheduleElections(uint _startsAtTimestamp, uint _endsWithinSeconds) public isOwner() {\n        elections[electionsCount].startsAtTimestamp = _startsAtTimestamp;\n        elections[electionsCount].endsWithinSeconds = _endsWithinSeconds;\n        emit ElectionScheduled(electionsCount);\n        electionsCount++;\n    }\n\n    function registerIdentifier(uint _electionID, bytes32 _identifierHash) public\n    isOwner()\n    isElectionSchedule(_electionID)\n    isElectionAlive(_electionID)\n    {\n        elections[_electionID].allowedAnonymizedIdentifiers[_identifierHash] = true;\n        emit RegisteredIdentifier(_electionID, _identifierHash);\n    }\n\n    function registerOption(uint _electionID, address _option) public\n    isOwner()\n    isElectionSchedule(_electionID)\n    isElectionAlive(_electionID)\n    {\n        elections[_electionID].options.push(_option);\n        emit RegisteredOption(_electionID, _option);\n        elections[_electionID].optionsCount++;\n    }\n\n    // Voting\n\n    function vote(uint _electionID, uint _optionID, bytes memory _identifier) public\n    isOwner()\n    isElectionSchedule(_electionID)\n    isElectionAlive(_electionID)\n    didNotVote(_electionID)\n    doesOptionExist(_electionID, _optionID)\n    {\n        bytes32 _anonymizedIdentifier = keccak256(_identifier);\n        require(elections[_electionID].allowedAnonymizedIdentifiers[_anonymizedIdentifier], \"Invalid identifier\");\n        elections[_electionID].allowedAnonymizedIdentifiers[_anonymizedIdentifier] = false;\n        elections[_electionID].didVote[msg.sender] = true;\n        elections[_electionID].votes[elections[_electionID].options[_optionID]]++;\n        emit Voted(_electionID, _anonymizedIdentifier);\n    }\n}",
  "sourcePath": "/Users/marcellobardus/Projects/Hackathons/OpenBankingHackathon/votee-sdk/contracts/Votee.sol",
  "compiler": {
    "name": "solc",
    "version": "0.5.11+commit.c082d0b4.Emscripten.clang"
  },
  "schemaVersion": "3.0.19",
  "updatedAt": "2019-11-22T22:56:17.564Z",
  "devdoc": {
    "methods": {}
  },
  "userdoc": {
    "methods": {}
  }
}