{
  "contractName": "Votee",
  "abi": [
    {
      "inputs": [],
      "payable": false,
      "stateMutability": "nonpayable",
      "type": "constructor"
    },
    {
      "anonymous": false,
      "inputs": [
        {
          "indexed": false,
          "internalType": "uint256",
          "name": "electionID",
          "type": "uint256"
        },
        {
          "indexed": false,
          "internalType": "uint256",
          "name": "startTimestamp",
          "type": "uint256"
        },
        {
          "indexed": false,
          "internalType": "uint256",
          "name": "duration",
          "type": "uint256"
        }
      ],
      "name": "ElectionScheduled",
      "type": "event"
    },
    {
      "anonymous": false,
      "inputs": [
        {
          "indexed": false,
          "internalType": "uint256",
          "name": "electionID",
          "type": "uint256"
        },
        {
          "indexed": false,
          "internalType": "bytes32",
          "name": "anonymizedIdentifier",
          "type": "bytes32"
        }
      ],
      "name": "RegisteredIdentifier",
      "type": "event"
    },
    {
      "anonymous": false,
      "inputs": [
        {
          "indexed": false,
          "internalType": "uint256",
          "name": "electionID",
          "type": "uint256"
        },
        {
          "indexed": false,
          "internalType": "address",
          "name": "option",
          "type": "address"
        },
        {
          "indexed": false,
          "internalType": "uint256",
          "name": "optionID",
          "type": "uint256"
        }
      ],
      "name": "RegisteredOption",
      "type": "event"
    },
    {
      "anonymous": false,
      "inputs": [
        {
          "indexed": false,
          "internalType": "uint256",
          "name": "electionID",
          "type": "uint256"
        },
        {
          "indexed": true,
          "internalType": "bytes32",
          "name": "anonymizedIdentifier",
          "type": "bytes32"
        }
      ],
      "name": "Voted",
      "type": "event"
    },
    {
      "constant": false,
      "inputs": [
        {
          "internalType": "uint256",
          "name": "_startsAtTimestamp",
          "type": "uint256"
        },
        {
          "internalType": "uint256",
          "name": "_endsWithinSeconds",
          "type": "uint256"
        }
      ],
      "name": "scheduleElections",
      "outputs": [
        {
          "internalType": "uint256",
          "name": "",
          "type": "uint256"
        }
      ],
      "payable": false,
      "stateMutability": "nonpayable",
      "type": "function"
    },
    {
      "constant": false,
      "inputs": [
        {
          "internalType": "uint256",
          "name": "_electionID",
          "type": "uint256"
        },
        {
          "internalType": "bytes32",
          "name": "_identifierHash",
          "type": "bytes32"
        }
      ],
      "name": "registerIdentifier",
      "outputs": [],
      "payable": false,
      "stateMutability": "nonpayable",
      "type": "function"
    },
    {
      "constant": false,
      "inputs": [
        {
          "internalType": "uint256",
          "name": "_electionID",
          "type": "uint256"
        },
        {
          "internalType": "address",
          "name": "_option",
          "type": "address"
        }
      ],
      "name": "registerOption",
      "outputs": [
        {
          "internalType": "uint256",
          "name": "",
          "type": "uint256"
        }
      ],
      "payable": false,
      "stateMutability": "nonpayable",
      "type": "function"
    },
    {
      "constant": false,
      "inputs": [
        {
          "internalType": "uint256",
          "name": "_electionID",
          "type": "uint256"
        },
        {
          "internalType": "uint256",
          "name": "_optionID",
          "type": "uint256"
        },
        {
          "internalType": "bytes32",
          "name": "_identifier",
          "type": "bytes32"
        }
      ],
      "name": "vote",
      "outputs": [],
      "payable": false,
      "stateMutability": "nonpayable",
      "type": "function"
    },
    {
      "constant": true,
      "inputs": [],
      "name": "getElectionsCount",
      "outputs": [
        {
          "internalType": "uint256",
          "name": "",
          "type": "uint256"
        }
      ],
      "payable": false,
      "stateMutability": "view",
      "type": "function"
    },
    {
      "constant": true,
      "inputs": [
        {
          "internalType": "uint256",
          "name": "_electionID",
          "type": "uint256"
        }
      ],
      "name": "getElectionStartTime",
      "outputs": [
        {
          "internalType": "uint256",
          "name": "",
          "type": "uint256"
        }
      ],
      "payable": false,
      "stateMutability": "view",
      "type": "function"
    },
    {
      "constant": true,
      "inputs": [
        {
          "internalType": "uint256",
          "name": "_electionID",
          "type": "uint256"
        }
      ],
      "name": "getElectionDuration",
      "outputs": [
        {
          "internalType": "uint256",
          "name": "",
          "type": "uint256"
        }
      ],
      "payable": false,
      "stateMutability": "view",
      "type": "function"
    },
    {
      "constant": true,
      "inputs": [
        {
          "internalType": "uint256",
          "name": "_electionID",
          "type": "uint256"
        },
        {
          "internalType": "bytes32",
          "name": "_anonymizedIdentifier",
          "type": "bytes32"
        }
      ],
      "name": "isIdentifierAllowed",
      "outputs": [
        {
          "internalType": "bool",
          "name": "",
          "type": "bool"
        }
      ],
      "payable": false,
      "stateMutability": "view",
      "type": "function"
    },
    {
      "constant": true,
      "inputs": [
        {
          "internalType": "uint256",
          "name": "_electionID",
          "type": "uint256"
        },
        {
          "internalType": "address",
          "name": "_voter",
          "type": "address"
        }
      ],
      "name": "didVote",
      "outputs": [
        {
          "internalType": "bool",
          "name": "",
          "type": "bool"
        }
      ],
      "payable": false,
      "stateMutability": "view",
      "type": "function"
    },
    {
      "constant": true,
      "inputs": [
        {
          "internalType": "uint256",
          "name": "_electionID",
          "type": "uint256"
        }
      ],
      "name": "getElectionOptionsCount",
      "outputs": [
        {
          "internalType": "uint256",
          "name": "",
          "type": "uint256"
        }
      ],
      "payable": false,
      "stateMutability": "view",
      "type": "function"
    },
    {
      "constant": true,
      "inputs": [
        {
          "internalType": "uint256",
          "name": "_electionID",
          "type": "uint256"
        },
        {
          "internalType": "uint256",
          "name": "_optionID",
          "type": "uint256"
        }
      ],
      "name": "getElectionOptionAddress",
      "outputs": [
        {
          "internalType": "address",
          "name": "",
          "type": "address"
        }
      ],
      "payable": false,
      "stateMutability": "view",
      "type": "function"
    },
    {
      "constant": true,
      "inputs": [
        {
          "internalType": "uint256",
          "name": "_electionID",
          "type": "uint256"
        },
        {
          "internalType": "address",
          "name": "_option",
          "type": "address"
        }
      ],
      "name": "getElectionOptionVotes",
      "outputs": [
        {
          "internalType": "uint256",
          "name": "",
          "type": "uint256"
        }
      ],
      "payable": false,
      "stateMutability": "view",
      "type": "function"
    }
  ],
  "bytecode": "0x608060405234801561001057600080fd5b50336000806101000a81548173ffffffffffffffffffffffffffffffffffffffff021916908373ffffffffffffffffffffffffffffffffffffffff160217905550611872806100606000396000f3fe608060405234801561001057600080fd5b50600436106100d1576000357c01000000000000000000000000000000000000000000000000000000009004806381cd39db1161008e57806381cd39db146102ba5780638c881eeb146102fc578063a7c438bc1461033e578063b1bb6ec3146103a4578063d4869e64146103c2578063ea879c8c146103fa576100d1565b806324340b2c146100d65780632dfbb019146101265780634dda437a1461016857806354497689146101ca57806368282bce1461021657806374d746a614610278575b600080fd5b61010c600480360360408110156100ec57600080fd5b810190808035906020019092919080359060200190929190505050610472565b604051808215151515815260200191505060405180910390f35b6101526004803603602081101561013c57600080fd5b810190808035906020019092919050505061052a565b6040518082815260200191505060405180910390f35b6101b46004803603604081101561017e57600080fd5b8101908080359060200190929190803573ffffffffffffffffffffffffffffffffffffffff1690602001909291905050506105c3565b6040518082815260200191505060405180910390f35b610200600480360360408110156101e057600080fd5b810190808035906020019092919080359060200190929190505050610960565b6040518082815260200191505060405180910390f35b6102626004803603604081101561022c57600080fd5b8101908080359060200190929190803573ffffffffffffffffffffffffffffffffffffffff169060200190929190505050610ac0565b6040518082815260200191505060405180910390f35b6102a46004803603602081101561028e57600080fd5b8101908080359060200190929190505050610b97565b6040518082815260200191505060405180910390f35b6102e6600480360360208110156102d057600080fd5b8101908080359060200190929190505050610c30565b6040518082815260200191505060405180910390f35b61033c6004803603606081101561031257600080fd5b81019080803590602001909291908035906020019092919080359060200190929190505050610cc9565b005b61038a6004803603604081101561035457600080fd5b8101908080359060200190929190803573ffffffffffffffffffffffffffffffffffffffff169060200190929190505050611303565b604051808215151515815260200191505060405180910390f35b6103ac6113e7565b6040518082815260200191505060405180910390f35b6103f8600480360360408110156103d857600080fd5b8101908080359060200190929190803590602001909291905050506113f1565b005b6104306004803603604081101561041057600080fd5b8101908080359060200190929190803590602001909291905050506116df565b604051808273ffffffffffffffffffffffffffffffffffffffff1673ffffffffffffffffffffffffffffffffffffffff16815260200191505060405180910390f35b60008280600154116104ec576040517f08c379a00000000000000000000000000000000000000000000000000000000081526004018080602001828103825260178152602001807f456c656374696f6e20646f6573206e6f7420657869737400000000000000000081525060200191505060405180910390fd5b60026000858152602001908152602001600020600201600084815260200190815260200160002060009054906101000a900460ff1691505092915050565b60008180600154116105a4576040517f08c379a00000000000000000000000000000000000000000000000000000000081526004018080602001828103825260178152602001807f456c656374696f6e20646f6573206e6f7420657869737400000000000000000081525060200191505060405180910390fd5b6002600084815260200190815260200160002060000154915050919050565b60008060009054906101000a900473ffffffffffffffffffffffffffffffffffffffff1673ffffffffffffffffffffffffffffffffffffffff163373ffffffffffffffffffffffffffffffffffffffff1614610687576040517f08c379a00000000000000000000000000000000000000000000000000000000081526004018080602001828103825260208152602001807f436f6e7472616374206f776e65722072657374726963746564206d6574686f6481525060200191505060405180910390fd5b8280600154116106ff576040517f08c379a00000000000000000000000000000000000000000000000000000000081526004018080602001828103825260178152602001807f456c656374696f6e20646f6573206e6f7420657869737400000000000000000081525060200191505060405180910390fd5b836002600082815260200190815260200160002060000154421161078b576040517f08c379a00000000000000000000000000000000000000000000000000000000081526004018080602001828103825260098152602001807f546f6f206561726c79000000000000000000000000000000000000000000000081525060200191505060405180910390fd5b6002600082815260200190815260200160002060010154600260008381526020019081526020016000206000015401421061082e576040517f08c379a00000000000000000000000000000000000000000000000000000000081526004018080602001828103825260088152602001807f546f6f206c61746500000000000000000000000000000000000000000000000081525060200191505060405180910390fd5b600260008681526020019081526020016000206005018490806001815401808255809150509060018203906000526020600020016000909192909190916101000a81548173ffffffffffffffffffffffffffffffffffffffff021916908373ffffffffffffffffffffffffffffffffffffffff160217905550507feb20d4fe3751ced34a4f6d0db3c0056ad21429396a83bb22812a57b9f8e4b37a85856002600089815260200190815260200160002060040154604051808481526020018373ffffffffffffffffffffffffffffffffffffffff1673ffffffffffffffffffffffffffffffffffffffff168152602001828152602001935050505060405180910390a1600260008681526020019081526020016000206004016000815480929190600101919050559250505092915050565b60008060009054906101000a900473ffffffffffffffffffffffffffffffffffffffff1673ffffffffffffffffffffffffffffffffffffffff163373ffffffffffffffffffffffffffffffffffffffff1614610a24576040517f08c379a00000000000000000000000000000000000000000000000000000000081526004018080602001828103825260208152602001807f436f6e7472616374206f776e65722072657374726963746564206d6574686f6481525060200191505060405180910390fd5b826002600060015481526020019081526020016000206000018190555081600260006001548152602001908152602001600020600101819055507f60324f8f92fcb9f68ee5672694b730843bde30a1983ba9f699af1554c327a509600154848460405180848152602001838152602001828152602001935050505060405180910390a16001600081548092919060010191905055905092915050565b6000828060015411610b3a576040517f08c379a00000000000000000000000000000000000000000000000000000000081526004018080602001828103825260178152602001807f456c656374696f6e20646f6573206e6f7420657869737400000000000000000081525060200191505060405180910390fd5b6002600085815260200190815260200160002060060160008473ffffffffffffffffffffffffffffffffffffffff1673ffffffffffffffffffffffffffffffffffffffff1681526020019081526020016000205491505092915050565b6000818060015411610c11576040517f08c379a00000000000000000000000000000000000000000000000000000000081526004018080602001828103825260178152602001807f456c656374696f6e20646f6573206e6f7420657869737400000000000000000081525060200191505060405180910390fd5b6002600084815260200190815260200160002060040154915050919050565b6000818060015411610caa576040517f08c379a00000000000000000000000000000000000000000000000000000000081526004018080602001828103825260178152602001807f456c656374696f6e20646f6573206e6f7420657869737400000000000000000081525060200191505060405180910390fd5b6002600084815260200190815260200160002060010154915050919050565b6000809054906101000a900473ffffffffffffffffffffffffffffffffffffffff1673ffffffffffffffffffffffffffffffffffffffff163373ffffffffffffffffffffffffffffffffffffffff1614610d8b576040517f08c379a00000000000000000000000000000000000000000000000000000000081526004018080602001828103825260208152602001807f436f6e7472616374206f776e65722072657374726963746564206d6574686f6481525060200191505060405180910390fd5b828060015411610e03576040517f08c379a00000000000000000000000000000000000000000000000000000000081526004018080602001828103825260178152602001807f456c656374696f6e20646f6573206e6f7420657869737400000000000000000081525060200191505060405180910390fd5b8360026000828152602001908152602001600020600001544211610e8f576040517f08c379a00000000000000000000000000000000000000000000000000000000081526004018080602001828103825260098152602001807f546f6f206561726c79000000000000000000000000000000000000000000000081525060200191505060405180910390fd5b60026000828152602001908152602001600020600101546002600083815260200190815260200160002060000154014210610f32576040517f08c379a00000000000000000000000000000000000000000000000000000000081526004018080602001828103825260088152602001807f546f6f206c61746500000000000000000000000000000000000000000000000081525060200191505060405180910390fd5b846002600082815260200190815260200160002060030160003373ffffffffffffffffffffffffffffffffffffffff1673ffffffffffffffffffffffffffffffffffffffff16815260200190815260200160002060009054906101000a900460ff1615611007576040517f08c379a00000000000000000000000000000000000000000000000000000000081526004018080602001828103825260118152602001807f596f7520616c726561647920766f74656400000000000000000000000000000081525060200191505060405180910390fd5b858580600260008481526020019081526020016000206004015411611094576040517f08c379a000000000000000000000000000000000000000000000000000000000815260040180806020018281038252600e8152602001807f496e76616c6964206f7074696f6e00000000000000000000000000000000000081525060200191505060405180910390fd5b60008660405160200180828152602001915050604051602081830303815290604052805190602001209050600260008a8152602001908152602001600020600201600082815260200190815260200160002060009054906101000a900460ff16611166576040517f08c379a00000000000000000000000000000000000000000000000000000000081526004018080602001828103825260128152602001807f496e76616c6964206964656e746966696572000000000000000000000000000081525060200191505060405180910390fd5b6000600260008b8152602001908152602001600020600201600083815260200190815260200160002060006101000a81548160ff0219169083151502179055506001600260008b815260200190815260200160002060030160003373ffffffffffffffffffffffffffffffffffffffff1673ffffffffffffffffffffffffffffffffffffffff16815260200190815260200160002060006101000a81548160ff021916908315150217905550600260008a81526020019081526020016000206006016000600260008c81526020019081526020016000206005018a8154811061124b57fe5b9060005260206000200160009054906101000a900473ffffffffffffffffffffffffffffffffffffffff1673ffffffffffffffffffffffffffffffffffffffff1673ffffffffffffffffffffffffffffffffffffffff16815260200190815260200160002060008154809291906001019190505550807f930d364ceca5db5248fd2180468563a7d4d70fa6dac758667411b86265f4e7b48a6040518082815260200191505060405180910390a2505050505050505050565b600082806001541161137d576040517f08c379a00000000000000000000000000000000000000000000000000000000081526004018080602001828103825260178152602001807f456c656374696f6e20646f6573206e6f7420657869737400000000000000000081525060200191505060405180910390fd5b6002600085815260200190815260200160002060030160008473ffffffffffffffffffffffffffffffffffffffff1673ffffffffffffffffffffffffffffffffffffffff16815260200190815260200160002060009054906101000a900460ff1691505092915050565b6000600154905090565b6000809054906101000a900473ffffffffffffffffffffffffffffffffffffffff1673ffffffffffffffffffffffffffffffffffffffff163373ffffffffffffffffffffffffffffffffffffffff16146114b3576040517f08c379a00000000000000000000000000000000000000000000000000000000081526004018080602001828103825260208152602001807f436f6e7472616374206f776e65722072657374726963746564206d6574686f6481525060200191505060405180910390fd5b81806001541161152b576040517f08c379a00000000000000000000000000000000000000000000000000000000081526004018080602001828103825260178152602001807f456c656374696f6e20646f6573206e6f7420657869737400000000000000000081525060200191505060405180910390fd5b82600260008281526020019081526020016000206000015442116115b7576040517f08c379a00000000000000000000000000000000000000000000000000000000081526004018080602001828103825260098152602001807f546f6f206561726c79000000000000000000000000000000000000000000000081525060200191505060405180910390fd5b6002600082815260200190815260200160002060010154600260008381526020019081526020016000206000015401421061165a576040517f08c379a00000000000000000000000000000000000000000000000000000000081526004018080602001828103825260088152602001807f546f6f206c61746500000000000000000000000000000000000000000000000081525060200191505060405180910390fd5b600160026000868152602001908152602001600020600201600085815260200190815260200160002060006101000a81548160ff0219169083151502179055507ff5becd3b8dbb1455b425995b838790614edc968d6059426950177ce8caf413418484604051808381526020018281526020019250505060405180910390a150505050565b6000828060015411611759576040517f08c379a00000000000000000000000000000000000000000000000000000000081526004018080602001828103825260178152602001807f456c656374696f6e20646f6573206e6f7420657869737400000000000000000081525060200191505060405180910390fd5b8383806002600084815260200190815260200160002060040154116117e6576040517f08c379a000000000000000000000000000000000000000000000000000000000815260040180806020018281038252600e8152602001807f496e76616c6964206f7074696f6e00000000000000000000000000000000000081525060200191505060405180910390fd5b60026000878152602001908152602001600020600501858154811061180757fe5b9060005260206000200160009054906101000a900473ffffffffffffffffffffffffffffffffffffffff1693505050509291505056fea265627a7a72315820b1ecf7030ecb45f0cd546895c10da3c4bad6abbc6e553b98146fca7fb73c1dcd64736f6c634300050b0032",
  "source": "pragma solidity 0.5.11;\n\ncontract Votee {\n\n    // Events\n\n    event ElectionScheduled(uint electionID, uint startTimestamp, uint duration);\n    event RegisteredIdentifier(uint electionID, bytes32 anonymizedIdentifier);\n    event RegisteredOption(uint electionID, address option, uint optionID);\n\n    event Voted(uint electionID, bytes32 indexed anonymizedIdentifier);\n\n    // Structs\n\n    struct Election {\n        uint startsAtTimestamp;\n        uint endsWithinSeconds;\n\n        mapping(bytes32 => bool) allowedAnonymizedIdentifiers;\n        mapping(address => bool) didVote;\n\n        uint optionsCount;\n        address[] options;\n\n        mapping(address => uint) votes;\n    }\n\n    address owner;\n    uint electionsCount;\n    mapping(uint => Election) elections;\n\n    constructor() public {\n        owner = msg.sender;\n    }\n\n    // Modifiers\n\n    modifier isOwner() {\n        require(msg.sender == owner, \"Contract owner restricted method\");\n        _;\n    }\n\n    modifier isElectionSchedule(uint _electionID) {\n        require(electionsCount > _electionID, \"Election does not exist\");\n        _;\n    }\n\n    modifier isElectionAlive(uint _electionID) {\n        require(block.timestamp > elections[_electionID].startsAtTimestamp, 'Too early');\n        require(block.timestamp < elections[_electionID].startsAtTimestamp + elections[_electionID].endsWithinSeconds, \"Too late\");\n        _;\n    }\n\n    modifier doesOptionExist(uint _electionID, uint _optionID) {\n        require(elections[_electionID].optionsCount > _optionID, \"Invalid option\");\n        _;\n    }\n\n    modifier didNotVote(uint _electionID) {\n        require(!elections[_electionID].didVote[msg.sender], \"You already voted\");\n        _;\n    }\n    // Owner restricted methods\n\n    function scheduleElections(uint _startsAtTimestamp, uint _endsWithinSeconds) public isOwner() returns (uint) {\n        elections[electionsCount].startsAtTimestamp = _startsAtTimestamp;\n        elections[electionsCount].endsWithinSeconds = _endsWithinSeconds;\n        emit ElectionScheduled(electionsCount, _startsAtTimestamp, _endsWithinSeconds);\n        return electionsCount++;\n    }\n\n    function registerIdentifier(uint _electionID, bytes32 _identifierHash) public\n    isOwner()\n    isElectionSchedule(_electionID)\n    isElectionAlive(_electionID)\n    {\n        elections[_electionID].allowedAnonymizedIdentifiers[_identifierHash] = true;\n        emit RegisteredIdentifier(_electionID, _identifierHash);\n    }\n\n    function registerOption(uint _electionID, address _option) public\n    isOwner()\n    isElectionSchedule(_electionID)\n    isElectionAlive(_electionID)\n    returns(uint)\n    {\n        elections[_electionID].options.push(_option);\n        emit RegisteredOption(_electionID, _option, elections[_electionID].optionsCount);\n        return elections[_electionID].optionsCount++;\n    }\n\n    // Voting\n\n    function vote(uint _electionID, uint _optionID, bytes32 _identifier) public\n    isOwner()\n    isElectionSchedule(_electionID)\n    isElectionAlive(_electionID)\n    didNotVote(_electionID)\n    doesOptionExist(_electionID, _optionID)\n    {\n        bytes32 _anonymizedIdentifier = keccak256(abi.encode(_identifier));\n        require(elections[_electionID].allowedAnonymizedIdentifiers[_anonymizedIdentifier], \"Invalid identifier\");\n        elections[_electionID].allowedAnonymizedIdentifiers[_anonymizedIdentifier] = false;\n        elections[_electionID].didVote[msg.sender] = true;\n        elections[_electionID].votes[elections[_electionID].options[_optionID]]++;\n        emit Voted(_electionID, _anonymizedIdentifier);\n    }\n\n    // View functions\n\n    function getElectionsCount() public view returns(uint) {\n        return electionsCount;\n    }\n\n    function getElectionStartTime(uint _electionID) public isElectionSchedule(_electionID) view returns(uint) {\n        return elections[_electionID].startsAtTimestamp;\n    }\n\n    function getElectionDuration(uint _electionID) public isElectionSchedule(_electionID) view returns(uint) {\n        return elections[_electionID].endsWithinSeconds;\n    }\n\n    function isIdentifierAllowed(uint _electionID, bytes32 _anonymizedIdentifier) public isElectionSchedule(_electionID) view returns(bool) {\n        return elections[_electionID].allowedAnonymizedIdentifiers[_anonymizedIdentifier];\n    }\n\n    function didVote(uint _electionID, address _voter) public isElectionSchedule(_electionID) view returns(bool) {\n        return elections[_electionID].didVote[_voter];\n    }\n\n    function getElectionOptionsCount(uint _electionID) public isElectionSchedule(_electionID) view returns(uint) {\n        return elections[_electionID].optionsCount;\n    }\n\n    function getElectionOptionAddress(uint _electionID, uint _optionID) public\n    isElectionSchedule(_electionID)\n    doesOptionExist(_electionID, _optionID)\n    view returns(address) {\n        return elections[_electionID].options[_optionID];\n    }\n\n    function getElectionOptionVotes(uint _electionID, address _option) public\n    isElectionSchedule(_electionID)\n    view returns(uint) {\n        return elections[_electionID].votes[_option];\n    }\n}",
  "sourcePath": "/Users/marcellobardus/Projects/Hackathons/OpenBankingHackathon/votee-sdk/contracts/Votee.sol",
  "compiler": {
    "name": "solc",
    "version": "0.5.11+commit.c082d0b4.Emscripten.clang"
  },
  "schemaVersion": "3.0.19",
  "updatedAt": "2019-11-24T07:15:56.127Z",
  "networkType": "ethereum",
  "devdoc": {
    "methods": {}
  },
  "userdoc": {
    "methods": {}
  }
}